:100000000C9468000C9490000C9490000C94900058
:100010000C9490000C9490000C9490000C94900020
:100020000C9490000C9490000C9490000C94900010
:100030000C9490000C9490000C9490000C94900000
:100040000C94AF060C9490000C947D060C9457060B
:100050000C9490000C9490000C9490000C949000E0
:100060000C94F9060C949000000000002400270076
:100070002A0000000000250028002B0000000000DE
:1000800023002600290004040404040404040202DA
:100090000202020203030303030301020408102007
:1000A0004080010204081020010204081020000012
:1000B0000008000201000003040700000000000027
:1000C00000001F1C1F1E1F1E1F1F1E1F1E001808C2
:1000D00011241FBECFEFD8E0DEBFCDBF12E0A0E0FD
:1000E000B1E0E2E5F0E202C005900D92AA3DB10751
:1000F000D9F724E0AAEDB2E001C01D92AE35B207F7
:10010000E1F710E0C8E6D0E004C02197FE010E94AC
:10011000260EC736D107C9F70E946E080C94271027
:100120000C940000982F2091980381E0213208F070
:1001300043C0809174038111FCCF8091970332E01A
:1001400030937403909373039FEF90937203109214
:10015000710320937003A7E7B3E0E0E5F3E090E0DC
:10016000291331C010924F0390914F03880F892BB0
:1001700080934F0380914E03813049F510924E03D6
:1001800080914F038093BB008091BC0083FDF8CF2A
:1001900085EC8093BC00809174038230E1F3809100
:1001A00072038F3FB1F0809172038032A1F0809191
:1001B0007203803391F084E01092760310929803DA
:1001C0001092750308953D9131939F5FC9CF85EEDD
:1001D000E0CF80E0F1CF82E0EFCF83E0EDCF089574
:1001E0000895AF92BF92CF92DF92EF92FF920F935A
:1001F0001F93CF93DF936C017B018B01040F151FBD
:10020000EB015E01AE18BF08C017D10759F0699124
:10021000D601ED91FC910190F081E02DC601099588
:10022000892B79F7C501DF91CF911F910F91FF9035
:10023000EF90DF90CF90BF90AF900895FC01538D69
:10024000448D252F30E0842F90E0821B930B5417B0
:1002500010F0CF96089501970895FC01918D828D3D
:10026000981761F0A28DAE0FBF2FB11D5D968C91D6
:10027000928D9F5F9F73928F90E008958FEF9FEF15
:100280000895FC01918D828D981731F0828DE80FD1
:10029000F11D858D90E008958FEF9FEF0895FC018B
:1002A000918D228D892F90E0805C9F4F821B910958
:1002B0008F739927089589E993E00E944F0121E007
:1002C000892B09F420E0822F089580E090E0892BAB
:1002D00029F00E945B0181110C9400000895FC013B
:1002E000A48DA80FB92FB11DA35ABF4F2C91848D97
:1002F00090E001968F739927848FA689B7892C93F4
:10030000A089B1898C91837080648C93938D848D46
:10031000981306C00288F389E02D80818F7D808349
:100320000895EF92FF920F931F93CF93DF93EC0109
:1003300081E0888F9B8D8C8D98131AC0E889F9898C
:10034000808185FF15C09FB7F894EE89FF8960838F
:10035000E889F98980818370806480839FBF81E010
:1003600090E0DF91CF911F910F91FF90EF90089552
:10037000F62E0B8D10E00F5F1F4F0F731127E02E2D
:100380008C8D8E110CC00FB607FCFACFE889F98965
:10039000808185FFF5CFCE010E946F01F1CFEB8DFB
:1003A000EC0FFD2FF11DE35AFF4FF0829FB7F89439
:1003B0000B8FEA89FB8980818062CFCFCF93DF9357
:1003C000EC01888D8823B9F0AA89BB89E889F9896D
:1003D0008C9185FD03C0808186FD0DC00FB607FCA2
:1003E000F7CF8C9185FFF2CF808185FFEDCFCE01D5
:1003F0000E946F01E9CFDF91CF910895833081F0A2
:1004000028F4813099F08230A9F008958730A9F05E
:100410008830C9F08430B1F4809180008F7D03C0B2
:10042000809180008F7780938000089584B58F77C6
:1004300084BD089584B58F7DFBCF8091B0008F7708
:100440008093B00008958091B0008F7DF9CFCF9355
:10045000DF93282F30E0F901E255FF4F8491F90135
:10046000E656FF4FD491F901EA57FF4FC491CC23D0
:10047000A1F081110E94FE01EC2FF0E0EE0FFF1FB2
:10048000E458FF4FA591B491EC91ED2381E090E009
:1004900009F480E0DF91CF91089580E090E0FACFF9
:1004A0001F93CF93DF93282F30E0F901E255FF4FE0
:1004B0008491F901E656FF4FD491F901EA57FF4FB5
:1004C000C491CC23A9F0162F81110E94FE01EC2FBC
:1004D000F0E0EE0FFF1FEE58FF4FA591B4918FB7DC
:1004E000F894EC91111108C0D095DE23DC938FBFF6
:1004F000DF91CF911F910895DE2BF8CFCF93DF933B
:1005000090E0FC01E656FF4F24918A579F4FFC0173
:1005100084918823D1F090E0880F991FFC01E8595D
:10052000FF4FA591B491FC01EE58FF4FC591D491B6
:1005300061110EC09FB7F8948C91E22FE0958E2345
:100540008C932881E223E8839FBFDF91CF910895A8
:100550008FB7F894EC91E22BEC938FBFF6CF8E50CF
:10056000806480937C0080917A00806480937A001C
:1005700080917A0086FDFCCF80917800909179007F
:1005800008953FB7F8948091220390912303A0919E
:100590002403B091250326B5A89B05C02F3F19F071
:1005A0000196A11DB11D3FBFBA2FA92F982F8827F3
:1005B000BC01CD01620F711D811D911D42E0660FCE
:1005C000771F881F991F4A95D1F708958F929F92A0
:1005D000AF92BF92CF92DF92EF92FF924B015C01FC
:1005E0000E94C1026B017C010E94C1026C197D094D
:1005F0008E099F09683E734081059105A8F321E0AB
:10060000821A9108A108B10888EEC80E83E0D81EAE
:10061000E11CF11C81149104A104B10429F7FF909D
:10062000EF90DF90CF90BF90AF909F908F90089504
:10063000089585ED8093BC008091BC0084FDFCCFC3
:100640001092740308952091FA02260F3327331F66
:1006500021323105ECF420917403FC0190E080E03C
:10066000243069F082E00895A091FA022191AC0152
:1006700046525D4FA40FB52FB11D2C9301968617DE
:1006800098F38091FA02680F6093FA0280E008956F
:1006900081E008950895E0912D0380912C03E817DF
:1006A00030F4F0E0E25DFC4F808190E008958FEF40
:1006B0009FEF089590912D0380912C032FEF3FEF32
:1006C000981748F4E92FF0E0E25DFC4F208130E01C
:1006D0009F5F90932D03C901089580912C03909101
:1006E0002D03891B990B0895CF92DF92EF92FF9211
:1006F0000F931F93CF93DF937C01CB018A0120914D
:100700007503222389F0EB016B01C40ED51ECC15B5
:10071000DD0569F06991D701ED91FC910190F081BF
:10072000E02DC7010995F3CF642F0E942303C80170
:10073000DF91CF911F910F91FF90EF90DF90CF90BD
:100740000895CF93DF931F92CDB7DEB769832091D1
:1007500075032223F9F020919803203258F021E00C
:1007600030E0FC013383228390E080E00F90DF9142
:10077000CF91089580917603E82FF0E0E958FC4F7F
:10078000998190838F5F809376038093980381E0B3
:1007900090E0ECCF61E0CE0101960E942303F7CFF9
:1007A00090E080E00895909174039111FCCF282F80
:1007B00091E090937403909373033FEF309372032F
:1007C00010927103380F3093700390934F03909100
:1007D0004F03906D90934F0390914E03913019F514
:1007E00010924E0390914F039093BB009091BC00E8
:1007F00093FDF8CF95EC9093BC00909174039130E9
:10080000E1F390917103981710F420917103A0E522
:10081000B3E0EEE2F3E080E0821307C010922D0314
:1008200080932C03089595EEE6CF9D9191938F5F71
:10083000F3CFCF93DF93EC0160E08E810E945002F2
:1008400061E08E810E94500260E08E810E94500221
:100850008BE891E00197F1F7DF91CF910895CF9266
:10086000DF92EF92FF920F931F93CF93DF936C0170
:100870007C0187E0E80EF11CD0E0C0E0062F10E01C
:10088000B8010C2E02C0759567950A94E2F7617065
:10089000F70181917F010E9450022196C430D10559
:1008A00079F7C601DF91CF911F910F91FF90EF90E3
:1008B000DF90CF900C941904CF92DF92EF92FF92C9
:1008C0000F931F93CF93DF93EC01F62E642F8C814F
:1008D0000E9450028D818F3F19F060E00E9450020B
:1008E0000F2D10E08F8584FF25C06E0187E0C80EB4
:1008F000D11CF12CE12CB8010E2C02C07595679526
:100900000A94E2F76170F60181916F010E94500232
:10091000FFEFEF1AFF0A88E0E816F10461F7CE0155
:10092000DF91CF911F910F91FF90EF90DF90CF90CB
:100930000C941904B80184E0759567958A95E1F7E0
:10094000CE010E942F046F2DCE01DF91CF911F9118
:100950000F91FF90EF90DF90CF900C942F0440E028
:10096000682F82E494E00C945C0481E00E94AF0460
:100970008BE39FE10197F1F70895CF93DF938230E6
:1009800029F49091510498609093510480935504F8
:100990001092560480E48093570480E180935804B9
:1009A00080E58093590461E0809146040E947E02B4
:1009B000809147048F3F19F061E00E947E0261E060
:1009C000809148040E947E02C2E4D4E09E01225439
:1009D00034408091510484FD0BC084E090E0219666
:1009E0002817390744F461E08E810E947E02EECF21
:1009F00088E090E0F4CF8BE39DE00197F1F760E0B1
:100A0000809146040E94500260E0809148040E9458
:100A10005002809147048F3F19F060E00E9450021D
:100A20008091510484FD34C063E082E494E00E942C
:100A30002F04CBE4D6E4CE010197F1F763E082E422
:100A400094E00E942F042197F1F763E082E494E0A0
:100A50000E942F0483E592E00197F1F762E082E4BF
:100A600094E00E942F048091510480620E94AF04A0
:100A700084E0809352048CE00E94AF040E94B5048D
:100A800082E08093530486E0DF91CF910C94AF0411
:100A900080620E94AF048BE496E40197F1F78091A5
:100AA000510480620E94AF0483E592E00197F1F760
:100AB0008091510480620E94AF04D5CF909155047B
:100AC000891710F08FEF890FE82FF0E0EE5BFB4FF6
:100AD000848980680C94AF0441E00E945C0481E04A
:100AE00090E00895FB0101900020E9F73197AF01F4
:100AF000461B570BDC01ED91FC910280F381E02D48
:100B000009948F929F92AF92BF92EF92FF920F93B0
:100B10001F93CF93DF93CDB7DEB7A1970FB6F894AD
:100B2000DEBF0FBECDBF7C01FA01CB0119A222307E
:100B300008F42AE08E010F5D1F4F822E912CB12CFC
:100B4000A12CBF01A50194010E94DA0DF901CA018F
:100B50006A300CF5605DD8016E938D01232B242B38
:100B6000252B79F790E080E0109721F0BD01C701B7
:100B70000E947205A1960FB6F894DEBF0FBECDBFDE
:100B8000DF91CF911F910F91FF90EF90BF90AF90A9
:100B90009F908F900895695CDECF462F50E070E003
:100BA00060E02AE00C948105CF93DF93BC0189E9D2
:100BB00093E00E947205EC016AE871E089E993E034
:100BC0000E9472058C0F9D1FDF91CF9108950C94A8
:100BD0007205FC0124813581232B39F421E0FB01CE
:100BE0008081882349F020E007C0808191810E94A4
:100BF000171021E0892BB9F7822F0895EF92FF9209
:100C00000F931F93CF93DF93EC017B018A018881BF
:100C10009981009729F02A813B812417350788F4B0
:100C2000B8016F5F7F4F0E94510F009791F0998339
:100C300088831B830A832C813D81232B11F4FC01C3
:100C400010821D830C83B701888199810E94201036
:100C50000CC088819981009711F00E94C80E1982FA
:100C600018821D821C821B821A82CE01DF91CF91D5
:100C70001F910F91FF90EF900895FB01DC011196F9
:100C80001C921E9213961C921E92129715961C92FD
:100C90001E9214978617970749F06081718161153C
:100CA000710521F0448155810C94FE0508951F9231
:100CB0000F920FB60F9211242F933F934F935F9390
:100CC0006F937F938F939F93AF93BF93EF93FF9314
:100CD00089E993E00E946F01FF91EF91BF91AF917D
:100CE0009F918F917F916F915F914F913F912F9144
:100CF0000F900FBE0F901F9018951F920F920FB676
:100D00000F9211242F938F939F93EF93FF93E09172
:100D1000A903F091AA038081E091AF03F091B003A1
:100D200082FD1BC090818091B2038F5F8F732091F1
:100D3000B303821741F0E091B203F0E0E756FC4FB5
:100D4000958F8093B203FF91EF919F918F912F9197
:100D50000F900FBE0F901F9018958081F4CF1F92B7
:100D60000F920FB60F9211242F933F938F939F935F
:100D7000AF93BF9380911E0390911F03A091200316
:100D8000B091210330911D0323E0230F2D3758F537
:100D90000196A11DB11D20931D0380931E03909306
:100DA0001F03A0932003B09321038091220390910D
:100DB0002303A0912403B09125030196A11DB11D29
:100DC0008093220390932303A0932403B0932503DD
:100DD000BF91AF919F918F913F912F910F900FBE37
:100DE0000F901F90189526E8230F0296A11DB11DA4
:100DF000D2CF1F920F920FB60F9211242F933F93D1
:100E00004F935F936F937F938F939F93AF93BF9312
:100E1000EF93FF938091B900887F803609F44AC030
:100E2000F0F5883209F4A7C018F5803109F49BC0A9
:100E3000B8F4882309F4F9C0883009F494C0FF910C
:100E4000EF91BF91AF919F918F917F916F915F9142
:100E50004F913F912F910F900FBE0F901F901895BB
:100E6000883109F488C0803251F78093720314C02E
:100E7000803409F49DC040F48033B9F38833F9F627
:100E80008093720385ECB0C0803509F485C0883545
:100E900009F496C0883499F60E941903D0CF883996
:100EA00009F48CC038F5883729F050F4883611F0F1
:100EB000803729F683E08093740310921C0357C097
:100EC000883809F47BC0803919F0803809F0B7CF31
:100ED00080911C03803208F071C0E0911C0381E016
:100EE0008E0F80931C038091BB00F0E0E450FD4F17
:100EF00080833DC0803B39F0E0F4803A09F479C04A
:100F0000883A09F09CCF84E0809374031092FB022E
:100F10001092FA02E0912803F0912903099580913B
:100F2000FA0281110FC081E08093FA021092DA0276
:100F300009C0803C09F4A6CF883C09F4A3CF883BC4
:100F400009F07DCFE091FB0281E08E0F8093FB02E0
:100F5000F0E0E652FD4F80818093BB009091FB0250
:100F60008091FA0229C080914F038093BB0085ECE9
:100F70008093BC0064CF90917103809170039817A7
:100F800058F5E091710381E08E0F80937103F0E0DA
:100F9000E05BFC4F8081E9CFE091710381E08E0F2F
:100FA000809371038091BB00F0E0E05BFC4F808395
:100FB00090917103809170039817C8F285E8D8CF9B
:100FC000E091710381E08E0F809371038091BB00EB
:100FD000F0E0E05BFC4F80838091730381115CCF74
:100FE00081E080934E0384EA8093BC0010927403E6
:100FF00026CF85EC8093BC001092740380911C0373
:10100000803230F4E0911C03F0E0E450FD4F108298
:1010100060911C0370E0E0912603F09127038CEFB0
:1010200092E0099510921C030ACF1092720334CFFC
:10103000E9E9F3E01382128288EE93E0A0E0B0E0E9
:1010400084839583A683B7832EE531E031832083A3
:1010500025EC30E03587248724EC30E0378726877D
:1010600020EC30E0318B208B21EC30E0338B228B75
:1010700022EC30E0358B248B26EC30E0378B268B4E
:10108000118E128E138E148EE6E3F4E01382128218
:1010900084839583A683B78380E791E091838083DF
:1010A000E2E4F4E01382128282E891E0918380838B
:1010B0008CE084838FEF85838BE0868385E0878354
:1010C00084E0808783E0818782E0828713861486AC
:1010D00015861686178681E00C94BD04CF93DF93A6
:1010E000CDB7DEB763970FB6F894DEBF0FBECDBFA6
:1010F000789484B5826084BD84B5816084BD85B5F3
:10110000826085BD85B5816085BD80916E008160FE
:1011100080936E00109281008091810082608093A4
:1011200081008091810081608093810080918000A6
:101130008160809380008091B10084608093B100D1
:101140008091B00081608093B00080917A008460CB
:1011500080937A0080917A00826080937A008091F7
:101160007A00816080937A0080917A008068809311
:101170007A001092C100E091A903F091AA0382E0E5
:101180008083E091A903F091AA031082E091A50366
:10119000F091A6031082E091A703F091A80380E1EB
:1011A00080831092B103E091AD03F091AE0386E02D
:1011B0008083E091AB03F091AC03808180618083F8
:1011C000E091AB03F091AC03808188608083E09173
:1011D000AB03F091AC03808180688083E091AB0326
:1011E000F091AC0380818F7D808310922D0310924B
:1011F0002C0310927603109298031092740311E05E
:101200001093730310924E0361E082E10E9450023A
:1012100061E083E10E9450028091B9008E7F80934B
:10122000B9008091B9008D7F8093B90088E48093E4
:10123000B80085E48093BC008FEE90E09093290382
:101240008093280380EF90E09093270380932603F8
:101250001093750388E6809397031092760310929B
:10126000980360E086E394E00E94A10381E00E947D
:10127000920081E090E00E94D30386E394E00E9414
:101280005A0387FF04C08DE891E00E94D40582E0F4
:101290000E94BD0460E089E00E947E0260E087E079
:1012A0000E947E0261E088E00E947E0260E080E1B0
:1012B0000E947E0260E081E10E947E0260E088E0A0
:1012C0000E94500222242A94A3E03A2E412C512C51
:1012D0006624639489E00E9427029E878D8781E1BE
:1012E0000E94AF022FEF30E0DC010E941F0EA2012E
:1012F00091010E94840D722E3B8B2A8B80E10E940B
:10130000AF022FEF30E0DC010E941F0EA20191011D
:101310000E94840D49015A0110922B0360927503BB
:1013200028E620939703109276031092980360E0CA
:1013300086E394E00E94A10381E00E94920087E08E
:1013400090E00E94D30386E394E00E945A0386E370
:1013500094E00E945A039C0154E0359527955A95D4
:10136000E1F72F703327922F990F990F022F091B46
:10137000000F080F86E394E00E945A039C0164E08A
:10138000359527956A95E1F72F703327922F990F9E
:10139000990F122F191B110F180F86E394E00E946A
:1013A0005A0386E394E00E945A039C0174E0359549
:1013B00027957A95E1F72F703327922F990F990F80
:1013C000F22EF91AFF0CF80E86E394E00E945A03FD
:1013D0009C01E4E035952795EA95E1F72F703327D6
:1013E000922F990F990FC22EC91ACC0CC80ECF8616
:1013F00086E394E00E945A039C01F4E0359527951A
:10140000FA95E1F72F703327922F990F990FE22E5B
:10141000E91AEE0CE80ECE2CD12CB6016053784FB1
:10142000798B688B80E00E945E052F2D30E0E2EC26
:10143000F0E081E07F85871730F49491290F311D0A
:101440008F5F3196F7CF8F85833028F08E2D837094
:1014500011F42F5F3F4F888999898D5C974096954D
:101460008795969587956DE671E0C69EA001C79E0B
:10147000500DD69E500D1124840F951F0596820F96
:10148000931F67E070E00E940B0E2CE0289FB001D4
:10149000299F700D112460507F4F18861F821A8675
:1014A00019861C861B86FB0101900020E9F7319705
:1014B000AF01461B570BCE0107960E94FE0561EA5D
:1014C00071E0CE0107960E94E905811131C067EAFB
:1014D00071E0CE0107960E94E905811129C061EBF8
:1014E00071E0CE0107960E94E905811121C066EBEB
:1014F00071E0CE0107960E94E905811119C06FEBDA
:1015000071E0CE0107960E94E905811111C068ECD7
:1015100071E0CE0107960E94E905811109C06DECCA
:1015200071E0CE0107960E94E905882309F44AC0BC
:101530001F3009F047C0E72CFB8864016D857E856C
:10154000672B09F42EC270E8E716F1040CF433C2DD
:1015500081E5881691040CF0E6C187E00E9427021D
:10156000019781F160E088E00E94500285E0E82E5A
:10157000F12C0E94B50468EC70E080E090E00E94DD
:10158000E60280E00E945E056DEE71E082E494E088
:101590000E94E70581E00E945E0568E172E082E456
:1015A00094E00E94E70564EF71E080E090E00E9423
:1015B000E60281E0E81AF108E1F604C091E5C916F7
:1015C000D1045CF287E00E942702F0902A03019781
:1015D00039F4F11005C080912B03882309F449C226
:1015E00087E00E942702892B09F46AC280912A03AE
:1015F000811108C080912B03811104C060E088E054
:101600000E945002F72CBE01695F7F4FCE01019608
:101610000E943D066CE472E089E993E00E94E705D0
:101620004D815E8169817A8189E993E00E94F100B0
:101630006AE871E089E993E00E94720565E572E06D
:1016400089E993E00E94E705612F89E993E00E9410
:10165000CD056AE871E089E993E00E9472056EE5C4
:1016600072E089E993E00E94E705672D89E993E03C
:101670000E94CD056AE871E089E993E00E94720555
:1016800067E672E089E993E00E94E7056D857E8553
:1016900080E792E0672B11F084E792E00E94D40586
:1016A00068E772E089E993E00E94E7052AE0B50166
:1016B000A401B7FE0DC06DE289E993E00E9491019B
:1016C00044275527BA01481959096A097B092AE0B4
:1016D00089E993E00E9481056AE871E089E993E075
:1016E0000E9472058CE891E00E94D40589819A815C
:1016F0000E94C80EBE01695F7F4FCE0101960E9415
:101700003D0680912B0381112CC00E94B50480E01E
:101710000E945E0566E272E082E494E00E94E705C2
:1017200081E00E945E054D815E8169817A8182E45B
:1017300094E00E94F10064E972E082E494E00E9487
:10174000E705612F82E494E00E94CD056CE972E028
:1017500082E494E00E94E705602F82E494E00E9416
:10176000CD0580912B03882309F4C2C080E00E943C
:101770005E0565E872E082E494E00E94E70580E09F
:101780000E945E0566E972E082E494E00E94E7054B
:101790008D859E8560E772E0892B11F064E772E029
:1017A00082E494E00E94E70568EE73E080E090E058
:1017B0000E94E60280E00E945E0565E872E082E435
:1017C00094E00E94E70580E00E945E056EE972E009
:1017D00082E494E00E94E7059A8997FF06C065EAD3
:1017E00072E082E494E00E94E7052EE72F1530F0C6
:1017F0006DEA72E082E494E00E94E70568EE73E02F
:1018000080E090E00E94E60280E00E945E0565E8CC
:1018100072E082E494E00E94E70580E00E945E05A9
:1018200066EB72E082E494E00E94E7052AE0B501ED
:10183000A401B7FE0EC041E06DE282E494E00E9494
:101840005C0444275527BA01481959096A097B09DC
:101850002AE082E494E00E94810568EE73E080E073
:1018600090E00E94E60280E00E945E0565E872E07A
:1018700082E494E00E94E70580E00E945E0562EC4D
:1018800072E082E494E00E94E705612F82E494E034
:101890000E94CD056CE972E082E494E00E94E705C5
:1018A000602F82E494E00E94CD0568EE73E080E052
:1018B00090E00E94E60280E00E945E0565E872E02A
:1018C00082E494E00E94E70580E00E945E0568ECF7
:1018D00072E082E494E00E94E705612F82E494E0E4
:1018E0000E94CD0568EE73E080E090E00E94E60281
:1018F00089819A810E94C80E68EB7BE080E090E0CD
:101900000E94E6028F8198850E94C80E60E070E018
:10191000672B09F4DFCC0E945B01882309F4DACC41
:101920000E940000D7CCBE01695F7F4FCE010196B7
:101930000E943D0688E00E942702892B59F50E94EB
:10194000B50467ED71E082E494E00E94E70581E070
:101950000E945E056FE082E494E00E94CD056CE990
:1019600072E082E494E00E94E705602F82E494E054
:101970000E94CD0567EE71E082E494E00E94E705E5
:1019800061E088E00E94500260ED77E080E090E046
:101990000E94E60289819A810E94C80E60922B0300
:1019A00011CE87E00E9427020197B9F520E8E216E0
:1019B000F1040CF003CE87E00E942702019709F49E
:1019C000FDCD60E088E00E94500295E0E92EF12C08
:1019D0000E94B50468EC70E080E090E00E94E602AE
:1019E00080E00E945E056DEE71E082E494E00E946A
:1019F000E70581E00E945E0567E072E082E494E022
:101A00000E94E70564EF71E080E090E00E94E6024A
:101A100071E0E71AF108E1F6D5CD60E088E00E94B8
:101A2000500225E0E22EF12C0E94B50468EC70E033
:101A300080E090E00E94E60280E00E945E056DEE8C
:101A400071E082E494E00E94E70581E00E945E0577
:101A50006AEF71E082E494E00E94E70564EF71E0D0
:101A600080E090E00E94E60261E0E61AF108E1F60B
:101A7000A9CD61E088E00E94500260922A0364E6EA
:101A800070E080E090E00E94E6020E94B50480E0F1
:101A90000E945E0566E272E082E494E00E94E7053F
:101AA00081E00E945E0561E372E082E494E00E94BE
:101AB000E70568EB7BE080E090E00E94E60296CDCF
:101AC000FF2009F493CD80912B0381118FCD60E02D
:101AD00088E00E94500210922A0364E670E080E0E1
:101AE00090E00E94E6020E94B50480E00E945E053C
:101AF00066E272E082E494E00E94E70581E00E94E1
:101B00005E056EE372E0D1CF052E97FB1EF40094C4
:101B10000E949B0D57FD07D00E94DA0D07FC03D0F1
:101B20004EF40C949B0D50954095309521953F4F68
:101B30004F4F5F4F089590958095709561957F4FB9
:101B40008F4F9F4F08952F923F924F925F926F92C7
:101B50007F928F929F92AF92BF92CF92DF92EF923D
:101B6000FF920F931F93CF93DF93CDB7DEB7CA1BBE
:101B7000DB0B0FB6F894DEBF0FBECDBF09942A88E9
:101B8000398848885F846E847D848C849B84AA8491
:101B9000B984C884DF80EE80FD800C811B81AA811E
:101BA000B981CE0FD11D0FB6F894DEBF0FBECDBFE9
:101BB000ED010895A1E21A2EAA1BBB1BFD010DC069
:101BC000AA1FBB1FEE1FFF1FA217B307E407F507ED
:101BD00020F0A21BB30BE40BF50B661F771F881FC9
:101BE000991F1A9469F760957095809590959B015F
:101BF000AC01BD01CF010895A29FB001B39FC00108
:101C0000A39F700D811D1124911DB29F700D811D28
:101C10001124911D0895AA1BBB1B51E107C0AA1FE7
:101C2000BB1FA617B70710F0A61BB70B881F991F7D
:101C30005A95A9F780959095BC01CD0108950E9411
:101C4000FC0DB7FF0895821B930B0895EE0FFF1F45
:101C50000590F491E02D09940F931F93CF93DF9398
:101C60008230910510F482E090E0E0915C04F09104
:101C70005D0430E020E0B0E0A0E0309799F4211559
:101C8000310509F44AC0281B390B24303105D8F539
:101C90008A819B816115710589F1FB0193838283A0
:101CA000FE0111C0408151810281138148175907FB
:101CB000E0F04817590799F4109761F012960C93C9
:101CC000129713961C933296CF01DF91CF911F91FB
:101CD0000F91089500935C0410935D04F4CF2115D7
:101CE000310551F04217530738F0A901DB019A0181
:101CF000BD01DF01F801C1CFEF01F9CF90935D0481
:101D000080935C04CDCFFE01E20FF31F819391938A
:101D10002250310939832883D7CF20915A0430913A
:101D20005B04232B41F420915601309157013093ED
:101D30005B0420935A0420915401309155012115E0
:101D4000310541F42DB73EB74091580150915901EA
:101D5000241B350BE0915A04F0915B04E217F30762
:101D6000A0F42E1B3F0B2817390778F0AC014E5F0B
:101D70005F4F2417350748F04E0F5F1F50935B04E9
:101D800040935A04819391939FCFF0E0E0E09CCF81
:101D9000CF93DF930097E9F0FC0132971382128210
:101DA000A0915C04B0915D04ED0130E020E010975B
:101DB000A1F420813181820F931F20915A04309128
:101DC0005B042817390709F061C0F0935B04E093C6
:101DD0005A04DF91CF910895EA01CE17DF07E8F5A5
:101DE0004A815B819E0141155105B1F7E901FB83F1
:101DF000EA8349915991C40FD51FEC17FD0761F48F
:101E0000808191810296840F951FE90199838883CF
:101E1000828193819B838A83F0E0E0E012968D912A
:101E20009C9113970097B9F52D913C911197CD0195
:101E30000296820F931F20915A0430915B04281759
:101E4000390739F6309751F510925D0410925C0411
:101E5000B0935B04A0935A04BCCFD383C283408168
:101E60005181840F951FC817D90761F44E5F5F4FEA
:101E700088819981480F591F518340838A819B81B2
:101E8000938382832115310509F0B0CFF0935D046F
:101E9000E0935C049ECFFD01DC01C0CF138212826F
:101EA000D7CFB0E0A0E0E7E5FFE00C94A50D8C01F2
:101EB000009751F4CB010E942C0E8C01C801CDB7C4
:101EC000DEB7E0E10C94C10DFC01E60FF71F9C01A9
:101ED00022503109E217F30708F49DC0D901CD91D2
:101EE000DC911197C617D70798F0C530D10530F3AC
:101EF000CE0104978617970708F3C61BD70B2297C6
:101F0000C193D1936D937C93CF010E94C80ED6CF1D
:101F10005B01AC1ABD0A4C018C0E9D1EA0915C04A5
:101F2000B0915D04512C412CF12CE12C109731F52E
:101F300080915A0490915B048815990509F05CC062
:101F40004616570608F058C08091540190915501EB
:101F5000009741F48DB79EB74091580150915901B7
:101F6000841B950BE817F90708F055C0F0935B0444
:101F7000E0935A04F90171836083A0CF8D919C9105
:101F8000119712966C90129713967C901397A81540
:101F9000B90559F56C0142E0C40ED11CCA14DB042A
:101FA00020F1AC014A195B09DA011296159780F00D
:101FB0006282738251834083D9016D937C93E114D3
:101FC000F10471F0D7011396FC93EE93129776CF3C
:101FD00022968C0F9D1FF90191838083F301EFCF2F
:101FE000F0935D04E0935C0469CF4816590608F449
:101FF0002C017D01D3019ACFCB010E942C0E7C01D4
:10200000009749F0AE01B8010E940E10C8010E946D
:10201000C80E870153CF10E000E050CFFB01DC0178
:1020200002C001900D9241505040D8F70895FB0135
:10203000DC018D91019080190110D9F3990B08955D
:10204000FB01DC0101900D920020E1F70895F89466
:02205000FFCFC0
:1020520050617A61720000000000000050617A61F4
:10206200727465736900000053616C6900000000BE
:102072000000000043617273616D62610000000044
:1020820050657273656D62650000000043756D6195
:10209200000000000000000043756D6172746573FA
:1020A2006900000000005E04800000000000910151
:1020B200F1001E01DE014F012D014101000000006F
:1020C200A1037403D0034A036D035A034B030000B8
:1020D20000006C05F100D00318030D0A00525443AE
:1020E20020C387414C49C59E4D49594F5220212159
:1020F2000050617A61720050617A6172746573692D
:102102000053616C690043617273616D62610050DA
:10211200657273656D62650043756D610043756D2F
:10212200617274657369004F746F6D6174696B20BD
:1021320053756C616D610020283268290053756CFB
:10214200616D61204475726475005941474D555265
:102152002056415220210047554E4553205945549F
:10216200455253495A202100544F5052414B204965
:10217200534C414B21004D616E75656C204D6F646F
:102182000053697374656D20416B7469660053690D
:102192007374656D204B6170616C690047756E20C8
:1021A20020203A20005361617420203A20004953D4
:1021B200494B20203A20005961676D75723A200020
:1021C20056617200596F6B00546F7072616B204ED2
:1021D200656D3A2000202020202020202020202071
:1021E2002020202020005941474D55523A004755A2
:1021F2004E45533A0059657465726C6900596574AD
:10220200657273697A00546F7072616B204E656DEE
:102212003A00534141543A004F746F6D6174696BD7
:0A2222002053756C616D612000000F
:00000001FF
